{
  "_format": "hh-sol-artifact-1",
  "contractName": "BuyMeACoffee",
  "sourceName": "contracts/BuyMeACoffee.sol",
  "abi": [
    {
      "inputs": [],
      "stateMutability": "nonpayable",
      "type": "constructor"
    },
    {
      "anonymous": false,
      "inputs": [
        {
          "indexed": true,
          "internalType": "address",
          "name": "from",
          "type": "address"
        },
        {
          "indexed": false,
          "internalType": "uint256",
          "name": "timestamp",
          "type": "uint256"
        },
        {
          "indexed": false,
          "internalType": "string",
          "name": "name",
          "type": "string"
        },
        {
          "indexed": false,
          "internalType": "string",
          "name": "message",
          "type": "string"
        }
      ],
      "name": "NewMemo",
      "type": "event"
    },
    {
      "inputs": [
        {
          "internalType": "string",
          "name": "_name",
          "type": "string"
        },
        {
          "internalType": "string",
          "name": "_message",
          "type": "string"
        }
      ],
      "name": "buyCoffee",
      "outputs": [],
      "stateMutability": "payable",
      "type": "function"
    },
    {
      "inputs": [],
      "name": "getMemos",
      "outputs": [
        {
          "components": [
            {
              "internalType": "address",
              "name": "from",
              "type": "address"
            },
            {
              "internalType": "uint256",
              "name": "timestamp",
              "type": "uint256"
            },
            {
              "internalType": "string",
              "name": "name",
              "type": "string"
            },
            {
              "internalType": "string",
              "name": "message",
              "type": "string"
            }
          ],
          "internalType": "struct BuyMeACoffee.Memo[]",
          "name": "",
          "type": "tuple[]"
        }
      ],
      "stateMutability": "view",
      "type": "function"
    },
    {
      "inputs": [],
      "name": "withdrawTips",
      "outputs": [],
      "stateMutability": "nonpayable",
      "type": "function"
    }
  ],
  "bytecode": "0x608060405234801561001057600080fd5b50336000806101000a81548173ffffffffffffffffffffffffffffffffffffffff021916908373ffffffffffffffffffffffffffffffffffffffff160217905550610b7a806100606000396000f3fe6080604052600436106100345760003560e01c8063204206e1146100395780633aaa74b214610055578063865c51721461006c575b600080fd5b610053600480360381019061004e91906105fb565b610097565b005b34801561006157600080fd5b5061006a61021f565b005b34801561007857600080fd5b5061008161030d565b60405161008e919061083f565b60405180910390f35b600034116100da576040517f08c379a00000000000000000000000000000000000000000000000000000000081526004016100d190610881565b60405180910390fd5b600160405180608001604052803373ffffffffffffffffffffffffffffffffffffffff16815260200142815260200184815260200183815250908060018154018082558091505060019003906000526020600020906004020160009091909190915060008201518160000160006101000a81548173ffffffffffffffffffffffffffffffffffffffff021916908373ffffffffffffffffffffffffffffffffffffffff1602179055506020820151816001015560408201518160020190805190602001906101a99291906104f0565b5060608201518160030190805190602001906101c69291906104f0565b5050503373ffffffffffffffffffffffffffffffffffffffff167fc56140e05f516509ae28110e0f72e17558a7561630dad2647c3ae87d986e365c428484604051610213939291906108a1565b60405180910390a25050565b60008054906101000a900473ffffffffffffffffffffffffffffffffffffffff1673ffffffffffffffffffffffffffffffffffffffff163373ffffffffffffffffffffffffffffffffffffffff16146102ad576040517f08c379a00000000000000000000000000000000000000000000000000000000081526004016102a490610861565b60405180910390fd5b60008054906101000a900473ffffffffffffffffffffffffffffffffffffffff1673ffffffffffffffffffffffffffffffffffffffff166108fc479081150290604051600060405180830381858888f1935050505061030b57600080fd5b565b60606001805480602002602001604051908101604052809291908181526020016000905b828210156104e757838290600052602060002090600402016040518060800160405290816000820160009054906101000a900473ffffffffffffffffffffffffffffffffffffffff1673ffffffffffffffffffffffffffffffffffffffff1673ffffffffffffffffffffffffffffffffffffffff168152602001600182015481526020016002820180546103c490610a20565b80601f01602080910402602001604051908101604052809291908181526020018280546103f090610a20565b801561043d5780601f106104125761010080835404028352916020019161043d565b820191906000526020600020905b81548152906001019060200180831161042057829003601f168201915b5050505050815260200160038201805461045690610a20565b80601f016020809104026020016040519081016040528092919081815260200182805461048290610a20565b80156104cf5780601f106104a4576101008083540402835291602001916104cf565b820191906000526020600020905b8154815290600101906020018083116104b257829003601f168201915b50505050508152505081526020019060010190610331565b50505050905090565b8280546104fc90610a20565b90600052602060002090601f01602090048101928261051e5760008555610565565b82601f1061053757805160ff1916838001178555610565565b82800160010185558215610565579182015b82811115610564578251825591602001919060010190610549565b5b5090506105729190610576565b5090565b5b8082111561058f576000816000905550600101610577565b5090565b60006105a66105a18461090b565b6108e6565b9050828152602081018484840111156105be57600080fd5b6105c98482856109de565b509392505050565b600082601f8301126105e257600080fd5b81356105f2848260208601610593565b91505092915050565b6000806040838503121561060e57600080fd5b600083013567ffffffffffffffff81111561062857600080fd5b610634858286016105d1565b925050602083013567ffffffffffffffff81111561065157600080fd5b61065d858286016105d1565b9150509250929050565b600061067383836107b7565b905092915050565b610684816109a2565b82525050565b60006106958261094c565b61069f818561096f565b9350836020820285016106b18561093c565b8060005b858110156106ed57848403895281516106ce8582610667565b94506106d983610962565b925060208a019950506001810190506106b5565b50829750879550505050505092915050565b600061070a82610957565b6107148185610980565b93506107248185602086016109ed565b61072d81610ae1565b840191505092915050565b600061074382610957565b61074d8185610991565b935061075d8185602086016109ed565b61076681610ae1565b840191505092915050565b600061077e600f83610991565b915061078982610af2565b602082019050919050565b60006107a1601a83610991565b91506107ac82610b1b565b602082019050919050565b60006080830160008301516107cf600086018261067b565b5060208301516107e26020860182610821565b50604083015184820360408601526107fa82826106ff565b9150506060830151848203606086015261081482826106ff565b9150508091505092915050565b61082a816109d4565b82525050565b610839816109d4565b82525050565b60006020820190508181036000830152610859818461068a565b905092915050565b6000602082019050818103600083015261087a81610771565b9050919050565b6000602082019050818103600083015261089a81610794565b9050919050565b60006060820190506108b66000830186610830565b81810360208301526108c88185610738565b905081810360408301526108dc8184610738565b9050949350505050565b60006108f0610901565b90506108fc8282610a52565b919050565b6000604051905090565b600067ffffffffffffffff82111561092657610925610ab2565b5b61092f82610ae1565b9050602081019050919050565b6000819050602082019050919050565b600081519050919050565b600081519050919050565b6000602082019050919050565b600082825260208201905092915050565b600082825260208201905092915050565b600082825260208201905092915050565b60006109ad826109b4565b9050919050565b600073ffffffffffffffffffffffffffffffffffffffff82169050919050565b6000819050919050565b82818337600083830152505050565b60005b83811015610a0b5780820151818401526020810190506109f0565b83811115610a1a576000848401525b50505050565b60006002820490506001821680610a3857607f821691505b60208210811415610a4c57610a4b610a83565b5b50919050565b610a5b82610ae1565b810181811067ffffffffffffffff82111715610a7a57610a79610ab2565b5b80604052505050565b7f4e487b7100000000000000000000000000000000000000000000000000000000600052602260045260246000fd5b7f4e487b7100000000000000000000000000000000000000000000000000000000600052604160045260246000fd5b6000601f19601f8301169050919050565b7f6e6f742076616c6964206f776e65720000000000000000000000000000000000600082015250565b7f63616e27742062757920636f6666656520666f7220667265652100000000000060008201525056fea264697066735822122099346649c511339e59ea7e62443ca688d8048ca3db7cea6d563d8d4d2b63030064736f6c63430008040033",
  "linkReferences": {},
  "deployedLinkReferences": {}
}